:10000000F62BCF1B0B2883134F1883170008840A85
:100010000319CF0A080000308A000408840A820706
:100020000034503475347334683420346234753499
:10003000743474346F346E34203474346F34203438
:10004000673465346E3465347234613474346534C5
:10005000203461342034723461346E3464346F344B
:100060006D3420346E3475346D34623465347234DA
:1000700020340034003474346F346E3420347434DB
:100080006F342034673465346E34653472346134CF
:1000900074346534203461342034723461346E3405
:1000A00064346F346D3420346E3475346D3462349E
:1000B00065347234203450347534733468342034E9
:0A00C00062347534743400340034E7
:10018C0001340034003400340130F0200830F02009
:10019C0008000030F0200130F02003308312910071
:1001AC0097309000900BD828910BD828DD280800A8
:1001BC0083121E0895001D0894000A30960000302A
:1001CC0097001F3028231F308312910000309200BB
:1001DC004421080083128F0006120F08032183129A
:1001EC00061706308E0030308D008D0BFB288E0BE1
:1001FC00FB28000083120613080083128C000C1CD1
:10020C00092906140A2906108C1C0E2986140F299C
:10021C0086100C1D13290615142906118C1D18297E
:10022C0086150800861108008312900010080F39FB
:10023C008D000D088E001008F0398D000D088F0010
:10024C0006160F088D00043003108D0CFF3E031DA5
:10025C002A290D080321831206170D308D008D0BF2
:10026C003529831206130E080321831206170D304D
:10027C008D008D0B3F298312061308008312960103
:10028C009701160811079400120893000318930A9B
:10029C00961B93038312130895001508CF001408BE
:1002AC0084000120003A0319080016081107940075
:1002BC00120893000318930A961B930383121308D6
:1002CC0095001508CF001408840001201A21013074
:1002DC00831296070318970A003097074729831251
:1002EC000C080D040319A3299101910A8D1B8A296D
:1002FC00013003108C0D8D0DFF3E031D7F29013045
:10030C009000100891077C290D080F02031D9029FD
:10031C000C080E02031C98290C088E020D08031CF5
:10032C008F038F02013003108D0C8C0CFF3E031DCC
:10033C00992901309102031D8A290F088D000E089E
:10034C008C000800003003211A3083129100F83021
:10035C009000900BAF29910BAF2900000330F020D7
:10036C000730831291007D309000900BBB29910BCC
:10037C00BB290330F0200F308312910047309000DE
:10038C00900BC629910BC629CB290330F0200230E3
:10039C00F0200230F0200830F0200030F0200C303B
:1003AC00F0200030F0200630F0200800831291017C
:1003BC0092010C080D040319142A9301930A8D1B46
:1003CC00F329013003108C0D8D0DFF3E031DE82920
:1003DC000130900010089307E52901300310910DAE
:1003EC00920DFF3E031DF4290D080F02031D002A78
:1003FC000C080E02031C092A0C088E020D08031CA3
:10040C008F038F021114013003108D0C8C0CFF3EE6
:10041C00031D0A2A01309302031DF32912088D00D3
:10042C0011088C00080000308312980000309700EF
:10043C0000309600003095000C1C382A10089507E7
:10044C00110803110318013E031D9607120803112E
:10045C000318013E031D9707130803110318013EEF
:10046C00031D9807013094000310900D910D920D0F
:10047C00930D940B3A2A013003108F0C8E0C8D0CBB
:10048C008C0CFF3E031D422A0F080E040D040C04B5
:10049C00031D222A18088F0017088E0016088D00DD
:1004AC0015088C00080083123B088F003A088E0058
:1004BC0039088D0038088C0041309300C63092000A
:1004CC004E3091006D309000192283120F08BB0042
:1004DC000E08BA000D08B9000C08B8003930B8077E
:1004EC00303003183130B907003003180130BA0727
:1004FC00003003180130BB0738089B0039089C00FA
:10050C003A089D003B089E0010309F001E0D9E0C6B
:10051C009D0C9C0C9B0C9F0B8C2AFF301B0599008F
:10052C007F301C059A000800831293001303031DEF
:10053C00BB2A10087F3E9100110896001608910006
:10054C0004300310910CFF3E031DA72A11089200E2
:10055C001208940016080F39910011089500140820
:10056C00F02083121508F0200800023083121306C5
:10057C00031D08001008BF3E9100110896001608D4
:10058C00910004300310910CFF3E031DC82A110882
:10059C0092001208940016080F399100110895006A
:1005AC001408F02083121508F02008008312A6010D
:1005BC00A31FE72AA209A309A20A0319A30AA601E9
:1005CC00A60AA11FEE2AA009A109A00A0319A10AD3
:1005DC002008210403191B2BA501A50AA11B022B22
:1005EC0001300310A00DA10DFF3E031DF72A0130B1
:1005FC00A4002408A507F42A21082302031D082BB4
:10060C0020082202031C102B2008A2022108031C24
:10061C00A303A30201300310A10CA00CFF3E031D89
:10062C00112B0130A502031D022B26080319232BC5
:10063C00A209A309A20A0319A30A2308A1002208EC
:10064C00A000080083129C0015089A001408990059
:10065C0017088D0016088C001A088F0019088E00D8
:10066C00DC2183120D089A000C08990001309800C7
:10067C0018089C0719081A04031D2E2B1C0884004B
:10068C008313800101309C0217088D0016088C0022
:10069C0015088F0014088E00752183120C08980021
:1006AC0018089B0017088D0016088C0015088F0081
:1006BC0014088E00DC2183120D0895000C089400A0
:1006CC000A301B02031C6E2B0730980018089B077E
:1006DC003030980018089B071B0898001C088400F1
:1006EC0018088313800001309C0214081504031DA4
:1006FC004A2B0130980018089C070800FF3083161D
:10070C008500860183128612A82101308312AF0066
:10071C002F08B6002B30AF002F08B7009001900ABD
:10072C0001309A228312360891000030031D80306C
:10073C009200442183129001900A02309A22831273
:10074C00370891000030031D8030920044210130A5
:10075C008312B4000030B500831234083504031939
:10076C00F52B0330B1008A30B0005630AF00AF0B20
:10077C00BD2BB00BBD2BB10BBD2BC42BCA208312D0
:10078C00851DB22BB401B5010630A0000030A100CC
:10079C00592283121A08A3001908A200DC22831222
:1007AC002008013EB20021080318013E003EB300B0
:1007BC00CF20831233089E0032089D00DE200B30C0
:1007CC008312B1002630B0006630AF00AF0BEC2BBB
:1007DC00B00BEC2BB10BEC2BF32BCF20B22B002856
:1007EC00C620B800C720B900C820BA00C920BB0079
:0407FC008301842BC6
:02400E00F1FFC0
:00000001FF
