:10000000FE2BCF1B0B2883134F1883170008840A7D
:100010000319CF0A080000308A000408840A820706
:1000200000344D3469346B3465344C346134753488
:0400300072340034F2
:1005B8000030EB220130EB22033083129100973098
:1005C8009000900BE52A910BE52AEA2A080083128D
:1005D8008F0006120F08FE228312061706308E00BF
:1005E80030308D008D0BF62A8E0BF62A0000831210
:1005F8000613080083128C000C1C042B0614052B10
:1006080006108C1C092B86140A2B86100C1D0E2B29
:1006180006150F2B06118C1D132B86150800861145
:100628000800831686010130831298001808990083
:1006380086128823DC2283129001900A0130BC23A1
:100648008312190891000030031D8030920057234F
:100658001E2B8312900010080F398D000D088E0094
:100668001008F0398D000D088F0006160F088D0050
:10067800043003108D0CFF3E031D3D2B0D08FE2298
:10068800831206170D308D008D0B482B831206132D
:100698000E08FE22831206170D308D008D0B522B8B
:1006A8008312061308008312960197011608110792
:1006B8009400120893000318930A961B930383125D
:1006C800130895001508CF00140884000120003A8B
:1006D800031908001608110794001208930003185C
:1006E800930A961B93038312130895001508CF00ED
:1006F8001408840001202D23013083129607031863
:10070800970A003097075A2B0030FE221A308312BE
:100718009100F8309000900B8F2B910B8F2B0000DD
:100728000330EB220730831291007D309000900B4C
:100738009B2B910B9B2B0330EB220F3083129100E4
:1007480047309000900BA62B910BA62BAB2B0330B8
:10075800EB220230EB220230EB220830EB22003091
:10076800EB220C30EB220030EB220630EB220800A3
:10077800831293001303031DDD2B10087F3E9100A5
:10078800110896001608910004300310910CFF3EE2
:10079800031DC92B110892001208940016080F397E
:1007A8009100110895001408EB2283121508EB221A
:1007B8000800023083121306031D08001008BF3E0C
:1007C8009100110896001608910004300310910C4E
:1007D800FF3E031DEA2B1108920012089400160828
:1007E8000F399100110895001408EB22831215089F
:0807F800EB2208008301152B20
:02400E00F1FFC0
:00000001FF
