:02000000FE2BD5
:1004280083121E0895001D0894000A3096000030BB
:1004380097001F30A2231F304C22080083128F0020
:1004480006120F0835228312061706308E00303048
:100458008D008D0B2D2A8E0B2D2A0000831206137A
:10046800080083128C000C1C3B2A06143C2A061038
:100478008C1C402A8614412A86100C1D452A061514
:10048800462A06118C1D4A2A86150800861108007E
:100498008312940092019301120814079100110825
:1004A8008400831300080319080012081407910038
:1004B80011088400831300089222013083129207E6
:1004C8000318930A00309307502A8312B201B3012C
:1004D8008316860183128612EF2283129001900AF6
:1004E80001306023831233089E0032089D001422D5
:1004F80006308312B1001330B000B130AF00AF0B3B
:10050800832AB00B832AB10B832A8A2A01308312EB
:10051800B2070318B30A0030B307712A8312900098
:1005280010080F398D000D088E001008F0398D0065
:100538000D088F0006160F088D00043003108D0C6F
:10054800FF3E031DA22A0D083522831206170D301F
:100558008D008D0BAD2A831206130E0835228312E7
:1005680006170D308D008D0BB72A8312061308006D
:1005780083120C080D040319EA2A9101910A8D1BB4
:10058800D12A013003108C0D8D0DFF3E031DC62AA4
:100598000130900010089107C32A0D080F02031DAF
:1005A800D72A0C080E02031CDF2A0C088E020D083D
:1005B800031C8F038F02013003108D0C8C0CFF3E3F
:1005C800031DE02A01309102031DD12A0F088D0076
:1005D8000E088C000800003035221A308312910072
:1005E800F8309000900BF62A910BF62A00000330A1
:1005F80022220730831291007D309000900B022B4D
:10060800910B022B033022220F30831291004730C6
:100618009000900B0D2B910B0D2B122B03302222E7
:1006280002302222023022220830222200302222E6
:100638000C302222003022220630222208008312A7
:10064800910192010C080D0403195B2B9301930A85
:100658008D1B3A2B013003108C0D8D0DFF3E031DB1
:100668002F2B01309000100893072C2B013003101A
:10067800910D920DFF3E031D3B2B0D080F02031D2C
:10068800472B0C080E02031C502B0C088E020D0879
:10069800031C8F038F021114013003108D0C8C0C76
:1006A800FF3E031D512B01309302031D3A2B120804
:1006B8008D0011088C000800831293001303031D9A
:1006C800812B10087F3E91001108960016089100B2
:1006D80004300310910CFF3E031D6D2B110892008E
:1006E8001208940016080F39910011089500140893
:1006F80022228312150822220800023083121306D0
:10070800031D08001008BF3E910011089600160846
:10071800910004300310910CFF3E031D8E2B11082D
:1007280092001208940016080F39910011089500DC
:1007380014082222831215082222080083129C0022
:1007480015089A001408990017088D0016088C00DF
:100758001A088F0019088E00232383120D089A00A7
:100768000C0899000130980018089C0719081A0409
:10077800031DA82B1C0884008313800101309C02F0
:1007880017088D0016088C0015088F0014088E00B5
:10079800BC2283120C08980018089B0017088D00CB
:1007A80016088C0015088F0014088E002323831266
:1007B8000D0895000C0894000A301B02031CE82B56
:1007C8000730980018089B073030980018089B07D6
:1007D8001B0898001C088400180883138000013047
:1007E8009C0214081504031DC42B01309800180836
:0807F8009C0708008301692A37
:02400E00F1FFC0
:00000001FF
