:10000000FE2BCF1B0B2883134F1883170008840A7D
:100010000319CF0A080000308A000408840A820706
:100020000034503475347334683420346234753499
:0C0030000034743474346F346E340034C7
:100580000130D4220C30D42208000030D4220130B3
:10059000D42203308312910097309000900BCE2A22
:1005A000910BCE2AD32A080083128F0006120F085F
:1005B000E7228312061706308E0030308D008D0B37
:1005C000DF2A8E0BDF2A0000831206130800831235
:1005D0008C000C1CED2A0614EE2A06108C1CF22A44
:1005E0008614F32A86100C1DF72A0615F82A061120
:1005F0008C1DFC2A861508008611080083129000C5
:1006000010080F398D000D088E001008F0398D008C
:100610000D088F0006160F088D00043003108D0C96
:10062000FF3E031D0E2B0D08E722831206170D3027
:100630008D008D0B192B831206130E08E7228312EF
:1006400006170D308D008D0B232B83120613080027
:10065000FF308316850086018312861288230130BD
:1006600083129800180899000930980018089A0019
:10067000C52283129001900A0130BC2383121A080C
:1006800091000030031D803092005723C022C02209
:10069000C022C022C022C022C022C0228312190858
:1006A00091000030031D803092005723382B8312B5
:1006B0009601970116081107940012089300031879
:1006C000930A961B93038312130895001508CF0015
:1006D000140884000120003A0319080016081107C5
:1006E0009400120893000318930A961B9303831235
:1006F000130895001508CF00140884000120FE227D
:100700000130831296070318970A003097075A2B77
:100710000030E7221A3083129100F8309000900BDD
:100720008F2B910B8F2B00000330D42207308312C4
:1007300091007D309000900B9B2B910B9B2B0330F5
:10074000D4220F308312910047309000900BA62BDB
:10075000910BA62BAB2B0330D4220230D4220230D3
:10076000D4220830D4220030D4220C30D4220030DD
:10077000D4220630D4220800831293001303031DF1
:10078000DD2B10087F3E910011089600160891009D
:1007900004300310910CFF3E031DC92B1108920079
:1007A0001208940016080F399100110895001408DA
:1007B000D42283121508D4220800023083121306B3
:1007C000031D08001008BF3E91001108960016088E
:1007D000910004300310910CFF3E031DEA2B110819
:1007E00092001208940016080F3991001108950024
:1007F0001408D42283121508D42208008301282B60
:02400E00F1FFC0
:00000001FF
