:02000000F62BDD
:10022A00013400340034003483121E0895001D087E
:10023A0094000A309600003097001F309A231F302E
:10024A006021080000303621013036210330831244
:10025A00910097309000900B3029910B3029352965
:10026A00080083128F0006120F084921831206170D
:10027A0006308E0030308D008D0B41298E0B4129BE
:10028A00000083120613080083128C000C1C4F29ED
:10029A000614502906108C1C5429861455298610D8
:1002AA000C1D592906155A2906118C1D5E29861519
:1002BA000800861108008312940092019301120823
:1002CA001407910011088400831300080319080019
:1002DA0012081407910011088400831300087D2175
:1002EA000130831292070318930A00309307642996
:1002FA008312900010080F398D000D088E00100827
:10030A00F0398D000D088F0006160F088D00043095
:10031A0003108D0CFF3E031D8D290D084921831200
:10032A0006170D308D008D0B9829831206130E08BF
:10033A004921831206170D308D008D0BA2298312D5
:10034A000613080083120C080D040319D52991011C
:10035A00910A8D1BBC29013003108C0D8D0DFF3EB7
:10036A00031DB1290130900010089107AE290D082C
:10037A000F02031DC2290C080E02031CCA290C080D
:10038A008E020D08031C8F038F02013003108D0C9F
:10039A008C0CFF3E031DCB2901309102031DBC29A1
:1003AA000F088D000E088C000800003049211A3011
:1003BA0083129100F8309000900BE129910BE1290A
:1003CA000000033036210730831291007D309000FF
:1003DA00900BED29910BED29033036210F30831252
:1003EA00910047309000900BF829910BF829FD29CC
:1003FA0003303621023036210230362108303621C8
:10040A00003036210C3036210030362106303621B4
:10041A0008008312910192010C080D040319462A5F
:10042A009301930A8D1B252A013003108C0D8D0D23
:10043A00FF3E031D1A2A0130900010089307172A5D
:10044A0001300310910D920DFF3E031D262A0D085F
:10045A000F02031D322A0C080E02031C3B2A0C0849
:10046A008E020D08031C8F038F0211140130031032
:10047A008D0C8C0CFF3E031D3C2A01309302031D98
:10048A00252A12088D0011088C00080000308312FA
:10049A0098000030970000309600003095000C1C40
:1004AA006A2A10089507110803110318013E031D53
:1004BA009607120803110318013E031D9707130834
:1004CA0003110318013E031D98070130940003101D
:1004DA00900D910D920D930D940B6C2A013003101F
:1004EA008F0C8E0C8D0C8C0CFF3E031D742A0F088A
:1004FA000E040D040C04031D542A18088F00170853
:10050A008E0016088D0015088C000800FF3083162F
:10051A008500860183128612DA2106308312A00032
:10052A000030A100CB2283121A08A3001908A200E6
:10053A004E2383122008013EAF0021080318013E12
:10054A00003EB0008312851DBE2A0630A00000308E
:10055A00A100CB2283121A08A3001908A2004E2375
:10056A0083122008013EAF0021080318013E003E15
:10057A00B000272183129001900A01300C238312C4
:10058A0030089E002F089D001921A72A83123408DB
:10059A008F0033088E0032088D0031088C004130FC
:1005AA009300C63092004E3091006D3090004B227D
:1005BA0083120F08B4000E08B3000D08B2000C082D
:1005CA00B1003930B107303003183130B20700308A
:1005DA0003180130B307003003180130B40731089B
:1005EA009B0032089C0033089D0034089E0010309E
:1005FA009F001E0D9E0C9D0C9C0C9B0C9F0BFE2AB3
:10060A00FF301B0599007F301C059A0008008312F1
:10061A0093001303031D2D2B10087F3E9100110830
:10062A0096001608910004300310910CFF3E031D3A
:10063A00192B110892001208940016080F3991001C
:10064A00110895001408362183121508362108006E
:10065A00023083121306031D08001008BF3E9100E2
:10066A00110896001608910004300310910CFF3E01
:10067A00031D3A2B110892001208940016080F392C
:10068A0091001108950014083621831215083621A5
:10069A0008008312A601A31F592BA209A309A20AC3
:1006AA000319A30AA601A60AA11F602BA009A10982
:1006BA00A00A0319A10A2008210403198D2BA501F8
:1006CA00A50AA11B742B01300310A00DA10DFF3E3A
:1006DA00031D692B0130A4002408A507662B2108F5
:1006EA002302031D7A2B20082202031C822B2008D6
:1006FA00A2022108031CA303A30201300310A10CC8
:10070A00A00CFF3E031D832B0130A502031D742B91
:10071A0026080319952BA209A309A20A0319A30AF9
:10072A002308A1002208A000080083129C001508D3
:10073A009A001408990017088D0016088C001A08E8
:10074A008F0019088E000E2283120D089A000C08D9
:10075A0099000130980018089C0719081A04031D0B
:10076A00A02B1C0884008313800101309C02170807
:10077A008D0016088C0015088F0014088E00A7211A
:10078A0083120C08980018089B0017088D00160899
:10079A008C0015088F0014088E000E2283120D0893
:1007AA0095000C0894000A301B02031CE02B07304A
:1007BA00980018089B073030980018089B071B08F8
:1007CA0098001C08840018088313800001309C02DA
:1007DA0014081504031DBC2B0130980018089C0747
:1007EA0008001521B1001621B2001721B300182103
:0607FA00B40083018B2A0C
:02400E00F1FFC0
:00000001FF
